{
  "contractName": "TasksContract",
  "abi": [
    {
      "inputs": [],
      "stateMutability": "nonpayable",
      "type": "constructor"
    },
    {
      "anonymous": false,
      "inputs": [
        {
          "indexed": false,
          "internalType": "uint256",
          "name": "id",
          "type": "uint256"
        },
        {
          "indexed": false,
          "internalType": "string",
          "name": "title",
          "type": "string"
        },
        {
          "indexed": false,
          "internalType": "string",
          "name": "description",
          "type": "string"
        },
        {
          "indexed": false,
          "internalType": "string",
          "name": "institucion",
          "type": "string"
        },
        {
          "indexed": false,
          "internalType": "string",
          "name": "nombre",
          "type": "string"
        },
        {
          "indexed": false,
          "internalType": "string",
          "name": "resolucion",
          "type": "string"
        },
        {
          "indexed": false,
          "internalType": "bool",
          "name": "done",
          "type": "bool"
        },
        {
          "indexed": false,
          "internalType": "uint256",
          "name": "createdAt",
          "type": "uint256"
        }
      ],
      "name": "TaskCreated",
      "type": "event"
    },
    {
      "anonymous": false,
      "inputs": [
        {
          "indexed": false,
          "internalType": "uint256",
          "name": "id",
          "type": "uint256"
        },
        {
          "indexed": false,
          "internalType": "bool",
          "name": "done",
          "type": "bool"
        }
      ],
      "name": "TaskToggledDone",
      "type": "event"
    },
    {
      "inputs": [
        {
          "internalType": "uint256",
          "name": "",
          "type": "uint256"
        }
      ],
      "name": "tasks",
      "outputs": [
        {
          "internalType": "uint256",
          "name": "id",
          "type": "uint256"
        },
        {
          "internalType": "string",
          "name": "title",
          "type": "string"
        },
        {
          "internalType": "string",
          "name": "description",
          "type": "string"
        },
        {
          "internalType": "string",
          "name": "institucion",
          "type": "string"
        },
        {
          "internalType": "string",
          "name": "nombre",
          "type": "string"
        },
        {
          "internalType": "string",
          "name": "resolucion",
          "type": "string"
        },
        {
          "internalType": "bool",
          "name": "done",
          "type": "bool"
        },
        {
          "internalType": "uint256",
          "name": "createdAt",
          "type": "uint256"
        }
      ],
      "stateMutability": "view",
      "type": "function",
      "constant": true
    },
    {
      "inputs": [],
      "name": "tasksCounter",
      "outputs": [
        {
          "internalType": "uint256",
          "name": "",
          "type": "uint256"
        }
      ],
      "stateMutability": "view",
      "type": "function",
      "constant": true
    },
    {
      "inputs": [
        {
          "internalType": "string",
          "name": "_title",
          "type": "string"
        },
        {
          "internalType": "string",
          "name": "_description",
          "type": "string"
        },
        {
          "internalType": "string",
          "name": "_institucion",
          "type": "string"
        },
        {
          "internalType": "string",
          "name": "_nombre",
          "type": "string"
        },
        {
          "internalType": "string",
          "name": "_resolucion",
          "type": "string"
        }
      ],
      "name": "createTask",
      "outputs": [],
      "stateMutability": "nonpayable",
      "type": "function"
    },
    {
      "inputs": [
        {
          "internalType": "uint256",
          "name": "_id",
          "type": "uint256"
        }
      ],
      "name": "toggleDone",
      "outputs": [],
      "stateMutability": "nonpayable",
      "type": "function"
    }
  ],
  "bytecode": "0x6080604052600080553480156200001557600080fd5b50620001346040518060400160405280600381526020017f756e6f00000000000000000000000000000000000000000000000000000000008152506040518060400160405280600381526020017f646f7300000000000000000000000000000000000000000000000000000000008152506040518060400160405280600481526020017f74726573000000000000000000000000000000000000000000000000000000008152506040518060400160405280600681526020017f63756174726f00000000000000000000000000000000000000000000000000008152506040518060400160405280600581526020017f63696e636f0000000000000000000000000000000000000000000000000000008152506200013a60201b60201c565b620005e8565b6000808154809291906200014e906200052b565b91905055506040518061010001604052806000548152602001868152602001858152602001848152602001838152602001828152602001600015158152602001428152506001600080548152602001908152602001600020600082015181600001556020820151816001019080519060200190620001ce929190620002c9565b506040820151816002019080519060200190620001ed929190620002c9565b5060608201518160030190805190602001906200020c929190620002c9565b5060808201518160040190805190602001906200022b929190620002c9565b5060a08201518160050190805190602001906200024a929190620002c9565b5060c08201518160060160006101000a81548160ff02191690831515021790555060e082015181600701559050507fa76d117e7cc54251eddd7ce71edef4b2c4e92720999c9f0cd7e7854011bf55c86000548686868686600042604051620002ba989796959493929190620003dc565b60405180910390a15050505050565b828054620002d790620004f5565b90600052602060002090601f016020900481019282620002fb576000855562000347565b82601f106200031657805160ff191683800117855562000347565b8280016001018555821562000347579182015b828111156200034657825182559160200191906001019062000329565b5b5090506200035691906200035a565b5090565b5b80821115620003755760008160009055506001016200035b565b5090565b6200038481620004a9565b82525050565b600062000397826200048d565b620003a3818562000498565b9350620003b5818560208601620004bf565b620003c081620005d7565b840191505092915050565b620003d681620004b5565b82525050565b600061010082019050620003f4600083018b620003cb565b818103602083015262000408818a6200038a565b905081810360408301526200041e81896200038a565b905081810360608301526200043481886200038a565b905081810360808301526200044a81876200038a565b905081810360a08301526200046081866200038a565b90506200047160c083018562000379565b6200048060e0830184620003cb565b9998505050505050505050565b600081519050919050565b600082825260208201905092915050565b60008115159050919050565b6000819050919050565b60005b83811015620004df578082015181840152602081019050620004c2565b83811115620004ef576000848401525b50505050565b600060028204905060018216806200050e57607f821691505b60208210811415620005255762000524620005a8565b5b50919050565b60006200053882620004b5565b91507fffffffffffffffffffffffffffffffffffffffffffffffffffffffffffffffff8214156200056e576200056d62000579565b5b600182019050919050565b7f4e487b7100000000000000000000000000000000000000000000000000000000600052601160045260246000fd5b7f4e487b7100000000000000000000000000000000000000000000000000000000600052602260045260246000fd5b6000601f19601f8301169050919050565b610fcd80620005f86000396000f3fe608060405234801561001057600080fd5b506004361061004c5760003560e01c806314c02d841461005157806385c3e7231461006d5780638d9776721461008b578063d81ef739146100c2575b600080fd5b61006b60048036038101906100669190610ae8565b6100de565b005b61007561025f565b6040516100829190610c73565b60405180910390f35b6100a560048036038101906100a09190610bef565b610265565b6040516100b9989796959493929190610cb7565b60405180910390f35b6100dc60048036038101906100d79190610bef565b610562565b005b6000808154809291906100f090610e85565b9190505550604051806101000160405280600054815260200186815260200185815260200184815260200183815260200182815260200160001515815260200142815250600160008054815260200190815260200160002060008201518160000155602082015181600101908051906020019061016e9291906109c0565b50604082015181600201908051906020019061018b9291906109c0565b5060608201518160030190805190602001906101a89291906109c0565b5060808201518160040190805190602001906101c59291906109c0565b5060a08201518160050190805190602001906101e29291906109c0565b5060c08201518160060160006101000a81548160ff02191690831515021790555060e082015181600701559050507fa76d117e7cc54251eddd7ce71edef4b2c4e92720999c9f0cd7e7854011bf55c86000548686868686600042604051610250989796959493929190610cb7565b60405180910390a15050505050565b60005481565b600160205280600052604060002060009150905080600001549080600101805461028e90610e22565b80601f01602080910402602001604051908101604052809291908181526020018280546102ba90610e22565b80156103075780601f106102dc57610100808354040283529160200191610307565b820191906000526020600020905b8154815290600101906020018083116102ea57829003601f168201915b50505050509080600201805461031c90610e22565b80601f016020809104026020016040519081016040528092919081815260200182805461034890610e22565b80156103955780601f1061036a57610100808354040283529160200191610395565b820191906000526020600020905b81548152906001019060200180831161037857829003601f168201915b5050505050908060030180546103aa90610e22565b80601f01602080910402602001604051908101604052809291908181526020018280546103d690610e22565b80156104235780601f106103f857610100808354040283529160200191610423565b820191906000526020600020905b81548152906001019060200180831161040657829003601f168201915b50505050509080600401805461043890610e22565b80601f016020809104026020016040519081016040528092919081815260200182805461046490610e22565b80156104b15780601f10610486576101008083540402835291602001916104b1565b820191906000526020600020905b81548152906001019060200180831161049457829003601f168201915b5050505050908060050180546104c690610e22565b80601f01602080910402602001604051908101604052809291908181526020018280546104f290610e22565b801561053f5780601f106105145761010080835404028352916020019161053f565b820191906000526020600020905b81548152906001019060200180831161052257829003601f168201915b5050505050908060060160009054906101000a900460ff16908060070154905088565b600060016000838152602001908152602001600020604051806101000160405290816000820154815260200160018201805461059d90610e22565b80601f01602080910402602001604051908101604052809291908181526020018280546105c990610e22565b80156106165780601f106105eb57610100808354040283529160200191610616565b820191906000526020600020905b8154815290600101906020018083116105f957829003601f168201915b5050505050815260200160028201805461062f90610e22565b80601f016020809104026020016040519081016040528092919081815260200182805461065b90610e22565b80156106a85780601f1061067d576101008083540402835291602001916106a8565b820191906000526020600020905b81548152906001019060200180831161068b57829003601f168201915b505050505081526020016003820180546106c190610e22565b80601f01602080910402602001604051908101604052809291908181526020018280546106ed90610e22565b801561073a5780601f1061070f5761010080835404028352916020019161073a565b820191906000526020600020905b81548152906001019060200180831161071d57829003601f168201915b5050505050815260200160048201805461075390610e22565b80601f016020809104026020016040519081016040528092919081815260200182805461077f90610e22565b80156107cc5780601f106107a1576101008083540402835291602001916107cc565b820191906000526020600020905b8154815290600101906020018083116107af57829003601f168201915b505050505081526020016005820180546107e590610e22565b80601f016020809104026020016040519081016040528092919081815260200182805461081190610e22565b801561085e5780601f106108335761010080835404028352916020019161085e565b820191906000526020600020905b81548152906001019060200180831161084157829003601f168201915b505050505081526020016006820160009054906101000a900460ff1615151515815260200160078201548152505090508060c00151158160c001901515908115158152505080600160008481526020019081526020016000206000820151816000015560208201518160010190805190602001906108dd9291906109c0565b5060408201518160020190805190602001906108fa9291906109c0565b5060608201518160030190805190602001906109179291906109c0565b5060808201518160040190805190602001906109349291906109c0565b5060a08201518160050190805190602001906109519291906109c0565b5060c08201518160060160006101000a81548160ff02191690831515021790555060e082015181600701559050507f3a359256e016dcfa8426ec503e08484999d6fcfb8c0f6084dc9e63374d838429828260c001516040516109b4929190610c8e565b60405180910390a15050565b8280546109cc90610e22565b90600052602060002090601f0160209004810192826109ee5760008555610a35565b82601f10610a0757805160ff1916838001178555610a35565b82800160010185558215610a35579182015b82811115610a34578251825591602001919060010190610a19565b5b509050610a429190610a46565b5090565b5b80821115610a5f576000816000905550600101610a47565b5090565b6000610a76610a7184610d7d565b610d58565b905082815260208101848484011115610a9257610a91610f60565b5b610a9d848285610de0565b509392505050565b600082601f830112610aba57610ab9610f5b565b5b8135610aca848260208601610a63565b91505092915050565b600081359050610ae281610f80565b92915050565b600080600080600060a08688031215610b0457610b03610f6a565b5b600086013567ffffffffffffffff811115610b2257610b21610f65565b5b610b2e88828901610aa5565b955050602086013567ffffffffffffffff811115610b4f57610b4e610f65565b5b610b5b88828901610aa5565b945050604086013567ffffffffffffffff811115610b7c57610b7b610f65565b5b610b8888828901610aa5565b935050606086013567ffffffffffffffff811115610ba957610ba8610f65565b5b610bb588828901610aa5565b925050608086013567ffffffffffffffff811115610bd657610bd5610f65565b5b610be288828901610aa5565b9150509295509295909350565b600060208284031215610c0557610c04610f6a565b5b6000610c1384828501610ad3565b91505092915050565b610c2581610dca565b82525050565b6000610c3682610dae565b610c408185610db9565b9350610c50818560208601610def565b610c5981610f6f565b840191505092915050565b610c6d81610dd6565b82525050565b6000602082019050610c886000830184610c64565b92915050565b6000604082019050610ca36000830185610c64565b610cb06020830184610c1c565b9392505050565b600061010082019050610ccd600083018b610c64565b8181036020830152610cdf818a610c2b565b90508181036040830152610cf38189610c2b565b90508181036060830152610d078188610c2b565b90508181036080830152610d1b8187610c2b565b905081810360a0830152610d2f8186610c2b565b9050610d3e60c0830185610c1c565b610d4b60e0830184610c64565b9998505050505050505050565b6000610d62610d73565b9050610d6e8282610e54565b919050565b6000604051905090565b600067ffffffffffffffff821115610d9857610d97610f2c565b5b610da182610f6f565b9050602081019050919050565b600081519050919050565b600082825260208201905092915050565b60008115159050919050565b6000819050919050565b82818337600083830152505050565b60005b83811015610e0d578082015181840152602081019050610df2565b83811115610e1c576000848401525b50505050565b60006002820490506001821680610e3a57607f821691505b60208210811415610e4e57610e4d610efd565b5b50919050565b610e5d82610f6f565b810181811067ffffffffffffffff82111715610e7c57610e7b610f2c565b5b80604052505050565b6000610e9082610dd6565b91507fffffffffffffffffffffffffffffffffffffffffffffffffffffffffffffffff821415610ec357610ec2610ece565b5b600182019050919050565b7f4e487b7100000000000000000000000000000000000000000000000000000000600052601160045260246000fd5b7f4e487b7100000000000000000000000000000000000000000000000000000000600052602260045260246000fd5b7f4e487b7100000000000000000000000000000000000000000000000000000000600052604160045260246000fd5b600080fd5b600080fd5b600080fd5b600080fd5b6000601f19601f8301169050919050565b610f8981610dd6565b8114610f9457600080fd5b5056fea2646970667358221220b41dc1690a067bb35d4ade473d9448f57a8d8a9b7cd434b7581629084476d46664736f6c63430008060033",
  "immutableReferences": {},
  "source": "// SPDX-License-Identifier: MIT\r\npragma solidity ^0.8.6;\r\n\r\ncontract TasksContract {\r\n    uint256 public tasksCounter = 0;\r\n\r\n    struct Task {\r\n        uint256 id;\r\n        string title;\r\n        string description;\r\n        string institucion;\r\n        string nombre;\r\n         string resolucion;\r\n\r\n        bool done;\r\n        uint256 createdAt;\r\n    }\r\n\r\n    event TaskCreated(\r\n        uint256 id,\r\n        string title,\r\n        string description,\r\n         string institucion,\r\n        string nombre,\r\n         string resolucion,\r\n        bool done,\r\n        uint256 createdAt\r\n    );\r\n    event TaskToggledDone(uint256 id, bool done);\r\n\r\n    mapping(uint256 => Task) public tasks;\r\n\r\n    constructor() {\r\n        createTask(\"uno\",\"dos\",\"tres\",\"cuatro\",\"cinco\");\r\n    }\r\n\r\n    function createTask(string memory _title, string memory _description,string memory _institucion,string memory _nombre,string memory _resolucion)\r\n        public\r\n    {\r\n        tasksCounter++;\r\n        tasks[tasksCounter] = Task(\r\n            tasksCounter,\r\n            _title,\r\n            _description,\r\n            _institucion,\r\n            _nombre,\r\n            _resolucion,\r\n            false,\r\n            block.timestamp\r\n        );\r\n        emit TaskCreated(\r\n            tasksCounter,\r\n            _title,\r\n            _description,\r\n            _institucion,\r\n            _nombre,\r\n            _resolucion,\r\n            false,\r\n            block.timestamp\r\n        );\r\n    }\r\n\r\n    function toggleDone(uint256 _id) public {\r\n        Task memory _task = tasks[_id];\r\n        _task.done = !_task.done;\r\n        tasks[_id] = _task;\r\n        emit TaskToggledDone(_id, _task.done);\r\n    }\r\n}\r\n",
  "sourcePath": "D:\\rolando\\ESCOM\\contracts\\TasksContract.sol",
  "compiler": {
    "name": "solc",
    "version": "0.8.6+commit.11564f7e.Emscripten.clang"
  },
  "schemaVersion": "3.4.11",
  "updatedAt": "2022-12-02T13:10:32.901Z",
  "networkType": "ethereum",
  "devdoc": {
    "kind": "dev",
    "methods": {},
    "version": 1
  },
  "userdoc": {
    "kind": "user",
    "methods": {},
    "version": 1
  }
}